{
  "abi": [
    {
      "inputs": [
        {
          "internalType": "address payable",
          "name": "_sponsor",
          "type": "address"
        },
        {
          "internalType": "uint256",
          "name": "_threshold",
          "type": "uint256"
        },
        {
          "internalType": "string",
          "name": "_name",
          "type": "string"
        }
      ],
      "stateMutability": "nonpayable",
      "type": "constructor"
    },
    {
      "inputs": [
        {
          "internalType": "address",
          "name": "address_",
          "type": "address"
        }
      ],
      "name": "authorizeContributor",
      "outputs": [],
      "stateMutability": "nonpayable",
      "type": "function"
    },
    {
      "inputs": [],
      "name": "contribute",
      "outputs": [],
      "stateMutability": "payable",
      "type": "function"
    },
    {
      "inputs": [
        {
          "internalType": "address",
          "name": "",
          "type": "address"
        }
      ],
      "name": "contributions",
      "outputs": [
        {
          "internalType": "uint256",
          "name": "",
          "type": "uint256"
        }
      ],
      "stateMutability": "view",
      "type": "function"
    },
    {
      "inputs": [],
      "name": "name",
      "outputs": [
        {
          "internalType": "string",
          "name": "",
          "type": "string"
        }
      ],
      "stateMutability": "view",
      "type": "function"
    },
    {
      "inputs": [
        {
          "internalType": "uint256",
          "name": "amount",
          "type": "uint256"
        }
      ],
      "name": "refund",
      "outputs": [],
      "stateMutability": "nonpayable",
      "type": "function"
    },
    {
      "inputs": [],
      "name": "sponsor",
      "outputs": [
        {
          "internalType": "address",
          "name": "",
          "type": "address"
        }
      ],
      "stateMutability": "view",
      "type": "function"
    },
    {
      "inputs": [],
      "name": "threshold",
      "outputs": [
        {
          "internalType": "uint256",
          "name": "",
          "type": "uint256"
        }
      ],
      "stateMutability": "view",
      "type": "function"
    },
    {
      "inputs": [],
      "name": "totalContributions",
      "outputs": [
        {
          "internalType": "uint256",
          "name": "",
          "type": "uint256"
        }
      ],
      "stateMutability": "view",
      "type": "function"
    },
    {
      "inputs": [
        {
          "internalType": "uint256",
          "name": "amount",
          "type": "uint256"
        }
      ],
      "name": "withdraw",
      "outputs": [],
      "stateMutability": "nonpayable",
      "type": "function"
    }
  ],
  "bytecode": {
    "object": "0x60806040523480156200001157600080fd5b5060405162000a9638038062000a96833981016040819052620000349162000094565b600180546001600160a01b0319166001600160a01b0385161790556000829055600262000062828262000222565b5050600060045550506005805460ff19166001179055620002ee565b634e487b7160e01b600052604160045260246000fd5b600080600060608486031215620000aa57600080fd5b83516001600160a01b0381168114620000c257600080fd5b60208581015160408701519295509350906001600160401b0380821115620000e957600080fd5b818701915087601f830112620000fe57600080fd5b8151818111156200011357620001136200007e565b604051601f8201601f19908116603f011681019083821181831017156200013e576200013e6200007e565b816040528281528a868487010111156200015757600080fd5b600093505b828410156200017b57848401860151818501870152928501926200015c565b60008684830101528096505050505050509250925092565b600181811c90821680620001a857607f821691505b602082108103620001c957634e487b7160e01b600052602260045260246000fd5b50919050565b601f8211156200021d57600081815260208120601f850160051c81016020861015620001f85750805b601f850160051c820191505b81811015620002195782815560010162000204565b5050505b505050565b81516001600160401b038111156200023e576200023e6200007e565b62000256816200024f845462000193565b84620001cf565b602080601f8311600181146200028e5760008415620002755750858301515b600019600386901b1c1916600185901b17855562000219565b600085815260208120601f198616915b82811015620002bf578886015182559484019460019091019084016200029e565b5085821015620002de5787850151600019600388901b60f8161c191681555b5050505050600190811b01905550565b61079880620002fe6000396000f3fe6080604052600436106100865760003560e01c806342cde4e81161005957806342cde4e81461011c57806342e94c901461013257806377c936621461015f578063b9da4a4214610197578063d7bb99ba146101b757600080fd5b806306fdde031461008b578063278ecde1146100b65780632e1a7d4d146100d857806337c08923146100f8575b600080fd5b34801561009757600080fd5b506100a06101bf565b6040516100ad9190610655565b60405180910390f35b3480156100c257600080fd5b506100d66100d13660046106a3565b61024d565b005b3480156100e457600080fd5b506100d66100f33660046106a3565b61039a565b34801561010457600080fd5b5061010e60045481565b6040519081526020016100ad565b34801561012857600080fd5b5061010e60005481565b34801561013e57600080fd5b5061010e61014d3660046106bc565b60036020526000908152604090205481565b34801561016b57600080fd5b5060015461017f906001600160a01b031681565b6040516001600160a01b0390911681526020016100ad565b3480156101a357600080fd5b506100d66101b23660046106bc565b6104b8565b6100d661053a565b600280546101cc906106ec565b80601f01602080910402602001604051908101604052809291908181526020018280546101f8906106ec565b80156102455780601f1061021a57610100808354040283529160200191610245565b820191906000526020600020905b81548152906001019060200180831161022857829003601f168201915b505050505081565b600054600454106102dd5760405162461bcd60e51b815260206004820152604960248201527f5468652063616d706169676e206861732072656163686564206974732074687260448201527f6573686f6c642c20736f20726566756e647320617265206e6f206c6f6e67657260648201526820706f737369626c6560b81b608482015260a4015b60405180910390fd5b336000908152600360205260409020548082111561034d5760405162461bcd60e51b815260206004820152602760248201527f526566756e6420616d6f756e74206973206d6f7265207468616e20636f6e747260448201526634b13aba34b7b760c91b60648201526084016102d4565b610357828261073c565b33600081815260036020526040808220939093559151909184156108fc02918591818181858888f19350505050158015610395573d6000803e3d6000fd5b505050565b600054600454101561042b5760405162461bcd60e51b815260206004820152604e60248201527f417320746865206f7267616e697a65722c20796f752063616e206f6e6c79207760448201527f69746864726177206f6e63652074686520636f6e747269627574696f6e20746860648201526d1c995cda1bdb19081a5cc81b595d60921b608482015260a4016102d4565b478111156104875760405162461bcd60e51b815260206004820152602360248201527f4d6f72652066756e647320726571756573746564207468616e20617661696c61604482015262626c6560e81b60648201526084016102d4565b604051339082156108fc029083906000818181858888f193505050501580156104b4573d6000803e3d6000fd5b5050565b6001546001600160a01b0316331461052f5760405162461bcd60e51b815260206004820152603460248201527f4f6e6c79207468652063616d706169676e2073706f6e736f722063616e20617560448201527374686f72697a6520636f6e7472696275746f727360601b60648201526084016102d4565b6104b46006826105e8565b60055460ff166105a95760405162461bcd60e51b815260206004820152603460248201527f5468652063616d706169676e2069736e277420616363657074696e6720636f6e604482015273747269627574696f6e73207269676874206e6f7760601b60648201526084016102d4565b33600090815260036020526040812080543492906105c890849061074f565b9250508190555034600460008282546105e1919061074f565b9091555050565b60006105fd836001600160a01b038416610606565b90505b92915050565b600081815260018301602052604081205461064d57508154600181810184556000848152602080822090930184905584548482528286019093526040902091909155610600565b506000610600565b600060208083528351808285015260005b8181101561068257858101830151858201604001528201610666565b506000604082860101526040601f19601f8301168501019250505092915050565b6000602082840312156106b557600080fd5b5035919050565b6000602082840312156106ce57600080fd5b81356001600160a01b03811681146106e557600080fd5b9392505050565b600181811c9082168061070057607f821691505b60208210810361072057634e487b7160e01b600052602260045260246000fd5b50919050565b634e487b7160e01b600052601160045260246000fd5b8181038181111561060057610600610726565b808201808211156106005761060061072656fea2646970667358221220974f2db48cc831e1deeb6a0eae2974c21a74614f24f476ff098fa89f7e77758d64736f6c63430008150033",
    "linkReferences": {}
  },
  "methodIdentifiers": {
    "authorizeContributor(address)": "b9da4a42",
    "contribute()": "d7bb99ba",
    "contributions(address)": "42e94c90",
    "name()": "06fdde03",
    "refund(uint256)": "278ecde1",
    "sponsor()": "77c93662",
    "threshold()": "42cde4e8",
    "totalContributions()": "37c08923",
    "withdraw(uint256)": "2e1a7d4d"
  },
  "id": 21
}